:100000000C945E000C9486000C9486000C94860080
:100010000C9486000C9486000C9486000C94860048
:100020000C9486000C9486000C9486000C94860038
:100030000C9486000C9486000C9486000C94860028
:100040000C94D7050C9486000C9486000C948600C2
:100050000C9486000C9486000C9486000C94860008
:100060000C9486000C9486000000000024002700F9
:100070002A0000000000250028002B0004040404CE
:100080000404040402020202020203030303030342
:10009000010204081020408001020408102001021F
:1000A00004081020000000080002010000030407FB
:1000B00000000000000000007B13341411241FBE58
:1000C000CFEFD8E0DEBFCDBF23E0AEEEB2E001C09F
:1000D0001D92A139B207E1F712E0A0E0B1E0E6E637
:1000E000FEE202C005900D92AE3EB107D9F710E0D6
:1000F000CDE5D0E004C02197FE010E94EF14CC357D
:10010000D107C9F70E9421060C9426170C94000011
:1001100080E480937C0080917A00806480937A00F0
:1001200080917A0086FDFCCF8091780090917900D3
:100130000895AF92BF92CF92DF92EF92FF920F930A
:100140001F93CF93DF936C017B018B01040F151F6D
:10015000EB015E01AE18BF08C017D10759F06991D5
:10016000D601ED91FC910190F081E02DC601099539
:10017000892B79F7C501DF91CF911F910F91FF90E6
:10018000EF90DF90CF90BF90AF900895FC01448135
:1001900055816081718185E793E00C94990090E02E
:1001A000FC01EC55FF4F2491FC01E057FF4F3491C7
:1001B000FC01E458FF4FE491EE23C9F0222339F00B
:1001C000233001F1A8F4213019F1223029F1F0E0B7
:1001D000EE0FFF1FEE58FF4FA591B4918FB7F89423
:1001E000EC91611126C030953E233C938FBF08955A
:1001F0002730A9F02830C9F0243049F780918000D9
:100200008F7D03C0809180008F7780938000DFCF47
:1002100084B58F7784BDDBCF84B58F7DFBCF809194
:10022000B0008F778093B000D2CF8091B0008F7DE7
:10023000F9CF3E2BDACFCF93DF9390E0FC01E0576C
:10024000FF4F249184589F4FFC0184918823D1F063
:1002500090E0880F991FFC01E859FF4FA591B491D8
:10026000FC01EE58FF4FC591D49161110EC09FB7AC
:10027000F8948C91E22FE0958E238C932881E223D1
:10028000E8839FBFDF91CF9108958FB7F894EC91E9
:10029000E22BEC938FBFF6CF3FB7F8948091F30237
:1002A0009091F402A091F502B091F60226B5A89BB8
:1002B00005C02F3F19F00196A11DB11D3FBFBA2FF8
:1002C000A92F982F8827BC01CD01620F711D811DB8
:1002D000911D42E0660F771F881F991F4A95D1F73D
:1002E00008958F929F92AF92BF92CF92DF92EF923A
:1002F000FF924B015C010E944C016B017C010E944A
:100300004C016C197D098E099F09683E7340810577
:100310009105A8F321E0821A9108A108B10888EE9E
:10032000C80E83E0D81EE11CF11C81149104A104C5
:10033000B10429F7FF90EF90DF90CF90BF90AF907E
:100340009F908F9008950F931F93CF93DF93EC01AD
:100350008B0188859985029749F46130710509F40C
:1003600036C04CF560E00115110591F1888599853D
:10037000049749F40130110509F451C09CF50115A9
:10038000110509F43BC088859985059709F0C5C01A
:100390000A30110508F0C1C0F801EF52FE4F0C946D
:1003A000EF1423022D023B024D02650267026D022B
:1003B000770285028B026230710591F060E00330B4
:1003C0001105A1F68C850E94CF0060E005C061E0B8
:1003D0008C850E94CF0061E08E850E94CF00C6CF41
:1003E00061E0F0CF0230110501F10330110559F63B
:1003F00061E08C850E94CF0060E01CC061E08C85CC
:100400000E94CF0060E08E850E94CF0061E0888965
:100410000E94CF0060E08A890E94CF00B4CF60E0E4
:100420008C850E94CF0061E0EECF60E08C850E9459
:10043000CF0061E08E850E94CF0060E088890E9435
:10044000CF0061E0E8CF60E08C850E94CF0061E0E2
:100450008E850E94CF0061E009C060E08C850E941B
:10046000CF0061E08E850E94CF0060E088890E9405
:10047000CF0060E00DC060E08C850E94CF0061E09D
:100480008E850E94CF0060E088890E94CF0061E0E5
:100490008A890E94CF0061E011C060E08C850E94D3
:1004A000CF0061E08E850E94CF0060E088890E94C5
:1004B000CF0061E08A890E94CF0060E08C89DF91E3
:1004C000CF911F910F910C94CF0061E0E7CF61E0D5
:1004D0008C850E94CF0060E0E5CF61E08C850E94B2
:1004E000CF0060E08E850E94CF0061E0DFCF61E049
:1004F0008C850E94CF0060E08E850E94CF0061E075
:1005000088890E94CF0060E0D5CF61E08C850E9491
:10051000CF0060E09DCF60E0F9CFDF91CF911F91D8
:100520000F9108954F925F926F927F928F929F9258
:10053000AF92BF92CF92DF92EF92FF920F931F93F1
:10054000CF93DF93EC018B0177FF04C000271127C5
:10055000061B170B161617060CF04AC081E090E038
:100560009983888384E0E82EF12C9AE0C92ED12C5F
:100570000115110509F44EC00E944C018E889F8818
:10058000A88CB98C2B013C01481859086A087B08D3
:100590008A809B80AC80BD80481459046A047B0427
:1005A00038F36E8B7F8B888F998F8A859B85288106
:1005B00039812130310511F501969B878A872E817B
:1005C0003F818217930711F41B861A860150110987
:1005D0008A859B8528853985B6012530310509F046
:1005E000B7010E94BC14BC01CE010E94A301C0CF80
:1005F000672B09F4B7CF19821882B4CF892B21F465
:100600008E819F819B878A878A859B8501979B879F
:100610008A87DCCFDF91CF911F910F91FF90EF90F0
:10062000DF90CF90BF90AF909F908F907F906F9012
:100630005F904F900895089590E080E00895209194
:10064000730330917403DC0114964D915C911597FE
:1006500024173507D9F4E0916F03F09170036D9181
:100660007C913097D1F06115710599F4232BC1F07D
:10067000808190E008C0232B99F0FB01808190E0FD
:1006800091958195910921E0892B09F020E0822F35
:100690000895CF010E941617F6CF6115710559F71D
:1006A00021E0F5CFFC0101900020E9F73197AF017F
:1006B000481B590BBC0185E793E00C949900CF933C
:1006C000DF93EC0160E08E810E94CF0061E08E81BB
:1006D0000E94CF0060E08E810E94CF008BE891E005
:1006E0000197F1F7DF91CF910895CF92DF92EF92CA
:1006F000FF920F931F93CF93DF936C017C0187E0F0
:10070000E80EF11CD0E0C0E0062F10E0B8010C2E7E
:1007100002C0759567950A94E2F76170F7018191BF
:100720007F010E94CF002196C430D10579F7C60120
:10073000DF91CF911F910F91FF90EF90DF90CF90BD
:100740000C945F03CF92DF92EF92FF920F931F936F
:10075000CF93DF93EC01F62E642F8C810E94CF00A3
:100760008D818F3F19F060E00E94CF000F2D10E0C7
:100770008F8584FF25C06E0187E0C80ED11CF12C47
:10078000E12CB8010E2C02C0759567950A94E2F72A
:100790006170F60181916F010E94CF00FFEFEF1AA7
:1007A000FF0A88E0E816F10461F7CE01DF91CF91EE
:1007B0001F910F91FF90EF90DF90CF900C945F030B
:1007C000B80184E0759567958A95E1F7CE010E949E
:1007D00075036F2DCE01DF91CF911F910F91FF9087
:1007E000EF90DF90CF900C94750340E0682F85E781
:1007F00093E00C94A20381E00E94F5038BE39FE158
:100800000197F1F70895CF93DF93823029F4909107
:1008100084039860909384038093880310928903E3
:1008200080E480938A0380E180938B0380E580934A
:100830008C0361E0809179030E941B0180917A030F
:100840008F3F19F061E00E941B0161E080917B0302
:100850000E941B01C5E7D3E09E01255733408091DC
:10086000840384FD0BC084E090E0219628173907AB
:1008700044F461E08E810E941B01EECF88E090E09D
:10088000F4CF8BE39DE00197F1F760E0809179036D
:100890000E94CF0060E080917B030E94CF00809196
:1008A0007A038F3F19F060E00E94CF0080918403AB
:1008B00084FD34C063E085E793E00E947503CBE4D8
:1008C000D6E4CE010197F1F763E085E793E00E945B
:1008D00075032197F1F763E085E793E00E947503C4
:1008E00083E592E00197F1F762E085E793E00E94EB
:1008F00075038091840380620E94F50384E08093F5
:1009000085038CE00E94F5030E94FB0382E0809344
:10091000860386E0DF91CF910C94F50380620E94FC
:10092000F5038BE496E40197F1F7809184038062EC
:100930000E94F50383E592E00197F1F7809184032B
:1009400080620E94F503D5CF90918803891710F03B
:100950008FEF890FE82FF0E0EB58FC4F8489806817
:100960000C94F50341E00E94A20381E090E0089519
:100970000F931F93CF93DF93EC01888199810097A8
:1009800059F02A813B812617370730F081E0DF914B
:10099000CF911F910F9108958B016F5F7F4F0E9440
:1009A0005016009759F0998388831B830A832C8102
:1009B0003D81232B59F7FC011082E8CF80E0E7CF7F
:1009C000EF92FF920F931F93CF93DF936115710501
:1009D00041F480E0DF91CF911F910F91FF90EF9054
:1009E000089541155105B1F07B01EC010C811D8189
:1009F000040F151FB8010E94B804882351F3288101
:100A000039818C819D81B701820F931F0E941F172E
:100A10001D830C8381E0DECFCF93DF93EC018881CF
:100A20009981009711F00E94C715198218821D82C2
:100A30001C821B821A82DF91CF910895CF93DF939E
:100A4000EC01FB0101900020E9F73197AF01461B53
:100A5000570B0E94E004811103C0CE010E940C05D7
:100A6000CE01DF91CF910895CF93DF93EC01FB018D
:100A700044815581608171810E94E004811103C02D
:100A8000CE010E940C05CE01DF91CF910895EF9227
:100A9000FF920F931F93CF93DF93EC017B018A01A9
:100AA000BA010E94B80481110BC0CE010E940C054E
:100AB000CE01DF91CF911F910F91FF90EF9008959C
:100AC0001D830C83B701888199810E941F17F0CF85
:100AD000FB0101900020E9F73197AF01461B570B4E
:100AE0000C9447050F931F93CF93DF93CDB7DEB7D9
:100AF00062970FB6F894DEBF0FBECDBF8C01CB015D
:100B0000F8011182108213821282158214824AE047
:100B1000BE016F5F7F4F0E945014BE016F5F7F4F19
:100B2000C8010E94680562960FB6F894DEBF0FBE3A
:100B3000CDBFDF91CF911F910F910895CF93DF9398
:100B4000EC01FB018617970749F0608171816115FF
:100B5000710541F0448155810E944705CE01DF9126
:100B6000CF9108950E940C05F9CFFC0111821082EB
:100B700013821282158214820C949E05FC0111824C
:100B800010821382128215821482FB0101900020D0
:100B9000E9F73197AF01461B570B0C944705FC0151
:100BA00080819181009711F00C94C71508951F92D0
:100BB0000F920FB60F9211242F933F938F939F9311
:100BC000AF93BF938091EF029091F002A091F10258
:100BD000B091F2023091EE0223E0230F2D3758F549
:100BE0000196A11DB11D2093EE028093EF02909318
:100BF000F002A093F102B093F2028091F30290917F
:100C0000F402A091F502B091F6020196A11DB11D6A
:100C10008093F3029093F402A093F502B093F6024E
:100C2000BF91AF919F918F913F912F910F900FBEE8
:100C30000F901F90189526E8230F0296A11DB11D55
:100C4000D2CFCF93DF93CDB7DEB76E970FB6F894C0
:100C5000DEBF0FBECDBF789484B5826084BD84B5FD
:100C6000816084BD85B5826085BD85B5816085BDA7
:100C700080916E00816080936E001092810080915F
:100C800081008260809381008091810081608093E7
:100C90008100809180008160809380008091B1000C
:100CA00084608093B1008091B00081608093B00037
:100CB00080917A00846080937A0080917A008260CB
:100CC00080937A0080917A00816080937A0080918D
:100CD0007A00806880937A001092C10061E08DE014
:100CE0000E941B0160E08EE00E941B0161E08FE02A
:100CF0000E941B0161E080E10E941B0161E081E133
:100D00000E941B0161E082E10E941B0161E086E01C
:100D10000E941B0161E087E00E941B0161E088E006
:100D20000E941B0161E089E00E941B0182E00E9499
:100D3000030480E00E94A4048DE191E00E9452032C
:100D400081E00E94A40487E291E00E945203209176
:100D50002D0330912E03032E000C440B550BC12C98
:100D600067E8D62E63E9E62E63E0F62EC701B601EA
:100D70000E94D0147CE3872E912CA12CB12CCA01A7
:100D8000B901A50194010E94D01420932903309346
:100D90002A0340932B0350932C032091130330918B
:100DA0001403032E000C440B550BC701B6010E941F
:100DB000D014CA01B901A50194010E94D014209356
:100DC0000F033093100340931103509312036CEE02
:100DD0007FEF87E293E00E94920211E010930101FD
:100DE0006CEE7FEF8DE093E00E9492021093000181
:100DF0006CEE7FEF87E293E00E9492026CEE7FEF51
:100E00008DE093E00E94920280910A018823C1F054
:100E10000E94FB0380E00E94A4048DE191E00E9407
:100E2000520381E00E94A40487E291E00E945203F1
:100E300010920A0181E090E09093090180930801EB
:100E400080916E03882361F10E94FB0380E00E9481
:100E5000A40488E391E00E94520381E00E94A4046C
:100E600089E491E00E94520310926E0381E090E0C9
:100E700090936D0380936C0310926B0310926A033E
:100E80001092690310926803109267031092660330
:100E90009093650380936403909309018093080104
:100EA00080916303882309F48FC084E190E09093DC
:100EB0006203809361030091610310916203011545
:100EC000110509F464C0053111050CF060C0015032
:100ED000110910936203009361030E94FB0380E0F9
:100EE0000E94A40462E571E0CE0101960E94BE0555
:100EF000B801CE0107960E94720567E571E0CE0148
:100F000043960E94BE05BE016D5E7F4FCE010D96D9
:100F10000E94B505BE01695F7F4FCE010D960E940C
:100F20003405BE016F5F7F4F0E943405BC018BE525
:100F300093E00E949E05CE010D960E94CF05CE0142
:100F400043960E94CF05CE0107960E94CF05CE01A1
:100F500001960E94CF058BE593E00E94C60081E0D8
:100F60000E94A40485E593E00E94C60068EE73E049
:100F700080E090E00E947101809161039091620392
:100F8000892B09F098CF81E08093540394CF80910E
:100F900054038823C9F01092630381E080936E03A9
:100FA0006CEE72E08BE593E00E9468056CEE72E0F7
:100FB0008FE693E00E94680510925303109252034B
:100FC00010926D0310926C030E9488008C01809136
:100FD000500390915103009741F0039734F48091AE
:100FE0004F03811102C00BE910E080914D039091F5
:100FF0004E03009741F0039734F480914F03811121
:1010000002C005EF10E080914B0390914C030097D4
:1010100041F0039734F480914F03811102C009E538
:1010200011E0C801875991090997F0F580916A0389
:1010300090916B03892BC1F580916C0390916D03A6
:10104000892B91F581E090E090936B0380936A0384
:10105000E0900601F090070181E0E816F104F1F458
:101060000E94FB0380E00E94A40482E691E00E94BB
:10107000520381E00E94A40482E791E00E9452039F
:1010800064E670E080E090E00E9471011092070138
:1010900010920601F0926D03E0926C0368EC70E030
:1010A00080E090E00E947101C801815F9109099779
:1010B000F0F58091680390916903892BC1F58091C7
:1010C0006C0390916D03892B91F581E090E09093F2
:1010D000690380936803E0900401F090050181E0CA
:1010E000E816F104F1F40E94FB0380E00E94A404DE
:1010F0008FE791E00E94520381E00E94A4048FE8F0
:1011000091E00E94520364E670E080E090E00E946B
:1011100071011092050110920401F0926D03E092AA
:101120006C0368EC70E080E090E00E947101C801FF
:10113000855591400997F0F580916603909167037A
:10114000892BC1F580916C0390916D03892B91F5EA
:1011500081E090E09093670380936603E090020142
:10116000F090030181E0E816F104F1F40E94FB0322
:1011700080E00E94A4048CE991E00E94520381E087
:101180000E94A4048CEA91E00E94520364E670E09D
:1011900080E090E00E947101109203011092020120
:1011A000F0926D03E0926C0368EC70E080E090E0F8
:1011B0000E9471010F5B11090930110508F09AC0F6
:1011C0008091660390916703892B09F093C0809109
:1011D0006C0390916D03892B09F08CC080910801FC
:1011E00090910901019709F07CC00E94FB0380E007
:1011F0000E94A4046BEB71E0CE0101960E94BE0533
:101200006091490370914A03CE010D960E947205C8
:10121000BE01635F7F4FCE0107960E94B505BE01F8
:101220006F5F7F4FCE0107960E943405BC01CE014F
:1012300049960E94B505CE0107960E94CF05CE01C2
:101240000D960E94CF05CE0101960E94CF05CE01DA
:1012500049960E94C60081E00E94A40465EC71E0FA
:10126000CE0101960E94BE0560914703709148032C
:10127000CE010D960E947205BE01635F7F4FCE01C5
:1012800007960E94B505BE016F5F7F4FCE0107969E
:101290000E943405BC01CE0143960E94B505CE01E3
:1012A00007960E94CF05CE010D960E94CF05CE0174
:1012B00001960E94CF05CE0143960E94C60064E6C7
:1012C00070E080E090E00E9471011092090110929C
:1012D0000801CE0143960E94CF05CE0149960E9497
:1012E000CF0560ED77E080E090E00E94710181E041
:1012F00080930A01E0905203F090530380916C03B5
:1013000090916D03019709F05AC30E9488008C01E7
:1013100087599109099708F04CC084E0E816F10458
:101320000CF047C081E00E94A40485E593E00E9490
:10133000C60081E00E94A4046BE573E0CE01019633
:101340000E94B50561ED71E0CE0101960E941E0577
:10135000BC018BE593E00E949E05CE0101960E94A0
:10136000CF058BE593E00E94C6006FE673E0CE01E7
:1013700001960E94B50563ED71E0CE0101960E94D1
:101380001E05BC018FE693E00E949E05CE010196EA
:101390000E94CF0580915203909153030196909340
:1013A00053038093520361E070E080E090E00E947C
:1013B0007101C801815F9109099708F04EC08091C1
:1013C00052039091530304970CF047C081E00E94B0
:1013D000A40485E593E00E94C60081E00E94A40475
:1013E0006BE573E0CE0101960E94B50561ED71E0F9
:1013F000CE0101960E941E05BC018BE593E00E9480
:101400009E05CE0101960E94CF058BE593E00E94D8
:10141000C6006FE673E0CE0101960E94B50560ED4F
:1014200072E0CE0101960E941E05BC018FE693E09A
:101430000E949E05CE0101960E94CF058091520325
:10144000909153030196909353038093520361E06C
:1014500070E080E090E00E947101C80185559140E4
:10146000099708F04EC0809152039091530304975E
:101470000CF047C081E00E94A40485E593E00E943F
:10148000C60081E00E94A4046BE573E0CE010196E2
:101490000E94B50561ED71E0CE0101960E941E0526
:1014A000BC018BE593E00E949E05CE0101960E944F
:1014B000CF058BE593E00E94C6006FE673E0CE0196
:1014C00001960E94B50565ED72E0CE0101960E947D
:1014D0001E05BC018FE693E00E949E05CE01019699
:1014E0000E94CF05809152039091530301969093EF
:1014F00053038093520361E070E080E090E00E942B
:101500007101C8018F5B9109099708F04EC0809165
:1015100052039091530304970CF047C081E00E945E
:10152000A40485E593E00E94C60081E00E94A40423
:101530006BE573E0CE0101960E94B50561ED71E0A7
:10154000CE0101960E941E05BC018BE593E00E942E
:101550009E05CE0101960E94CF058BE593E00E9487
:10156000C6006FE673E0CE0101960E94B50566E302
:1015700071E0CE0101960E941E05BC018FE693E04A
:101580000E949E05CE0101960E94CF0580915203D4
:10159000909153030196909353038093520361E01B
:1015A00070E080E090E00E947101C8018753914093
:1015B000099708F04EC0809152039091530304970D
:1015C0000CF047C081E00E94A40485E593E00E94EE
:1015D000C60081E00E94A4046BE573E0CE01019691
:1015E0000E94B50561ED71E0CE0101960E941E05D5
:1015F000BC018BE593E00E949E05CE0101960E94FE
:10160000CF058BE593E00E94C6006FE673E0CE0144
:1016100001960E94B50565ED71E0CE0101960E942C
:101620001E05BC018FE693E00E949E05CE01019647
:101630000E94CF058091520390915303019690939D
:1016400053038093520361E070E080E090E00E94D9
:101650007101C8018B599140099708F04EC08091E3
:1016600052039091530304970CF047C081E00E940D
:10167000A40485E593E00E94C60081E00E94A404D2
:101680006BE573E0CE0101960E94B50561ED71E056
:10169000CE0101960E941E05BC018BE593E00E94DD
:1016A0009E05CE0101960E94CF058BE593E00E9436
:1016B000C6006FE673E0CE0101960E94B50567EDA6
:1016C00071E0CE0101960E941E05BC018FE693E0F9
:1016D0000E949E05CE0101960E94CF058091520383
:1016E000909153030196909353038093520361E0CA
:1016F00070E080E090E00E947101C8018D5192403D
:10170000439708F04EC08091520390915303049781
:101710000CF047C081E00E94A40485E593E00E949C
:10172000C60081E00E94A4046BE573E0CE0101963F
:101730000E94B50561ED71E0CE0101960E941E0583
:10174000BC018BE593E00E949E05CE0101960E94AC
:10175000CF058BE593E00E94C6006FE673E0CE01F3
:1017600001960E94B50569ED71E0CE0101960E94D7
:101770001E05BC018FE693E00E949E05CE010196F6
:101780000E94CF058091520390915303019690934C
:1017900053038093520361E070E080E090E00E9488
:1017A0007101C801835B9240099708F04EC0809197
:1017B00052039091530304970CF047C081E00E94BC
:1017C000A40485E593E00E94C60081E00E94A40481
:1017D0006BE573E0CE0101960E94B50561ED71E005
:1017E000CE0101960E941E05BC018BE593E00E948C
:1017F0009E05CE0101960E94CF058BE593E00E94E5
:10180000C6006FE673E0CE0101960E94B5056BED50
:1018100071E0CE0101960E941E05BC018FE693E0A7
:101820000E949E05CE0101960E94CF058091520331
:10183000909153030196909353038093520361E078
:1018400070E080E090E00E947101C8018D509340EB
:10185000099708F04EC0809152039091530304976A
:101860000CF047C081E00E94A40485E593E00E944B
:10187000C60081E00E94A4046BE573E0CE010196EE
:101880000E94B50561ED71E0CE0101960E941E0532
:10189000BC018BE593E00E949E05CE0101960E945B
:1018A000CF058BE593E00E94C6006FE673E0CE01A2
:1018B00001960E94B5056AED72E0CE0101960E9484
:1018C0001E05BC018FE693E00E949E05CE010196A5
:1018D0000E94CF05809152039091530301969093FB
:1018E00053038093520361E070E080E090E00E9437
:1018F0007101035A13400930110508F04EC0809160
:1019000052039091530304970CF047C081E00E946A
:10191000A40485E593E00E94C60081E00E94A4042F
:101920006BE573E0CE0101960E94B50561ED71E0B3
:10193000CE0101960E941E05BC018BE593E00E943A
:101940009E05CE0101960E94CF058BE593E00E9493
:10195000C6006FE673E0CE0101960E94B5056DEDFD
:1019600071E0CE0101960E941E05BC018FE693E056
:101970000E949E05CE0101960E94CF0580915203E0
:10198000909153030196909353038093520361E027
:1019900070E080E090E00E94710168EC70E080E00F
:1019A00090E00E947101809152039091530304973B
:1019B00009F0A0CC10926D0310926C039BCC84E0D4
:1019C000E816F10409F075C681E493E00E941F0354
:1019D000882351F18091640390916503019721F56B
:1019E00010926D0310926C031092650310926403C1
:1019F00081E080930A016CEE72E08BE593E00E9437
:101A000068056CEE72E08FE693E00E946805109224
:101A10005303109252038091490390914A03019617
:101A200090934A038093490381E493E00E941F034B
:101A300081112CC08091640390916503019731F569
:101A400010926D0310926C03109265031092640360
:101A500010920A0181E0809363036CEE72E08BE5E3
:101A600093E00E9468056CEE72E08FE693E00E94BE
:101A7000680510925303109252038091470390918E
:101A800048030196909348038093470381E493E0D1
:101A90000E941F03882309F445C080916A03909136
:101AA0006B03019709F03EC00E94FB0380E00E9497
:101AB000A4048FED91E00E94520381E00E94A404EF
:101AC00085EF91E00E94520310926D0310926C0317
:101AD00011E010934F038091490390914A030196BE
:101AE00090934A038093490380910101811130C58D
:101AF0006CEE7FEF87E293E00E94920268EC70E068
:101B000080E090E00E9471016CEE7FEF87E293E04D
:101B10000E94920268EC70E080E090E00E94710107
:101B20001093010181E493E00E941F03882309F4CC
:101B300045C08091680390916903019709F03EC008
:101B40000E94FB0380E00E94A40481E092E00E94D6
:101B5000520381E00E94A40485EF91E00E945203A9
:101B600010926D0310926C0311E010934F0380915B
:101B7000490390914A03019690934A038093490345
:101B8000809100018111FFC46CEE7FEF8DE093E046
:101B90000E94920268EC70E080E090E00E94710187
:101BA0006CEE7FEF8DE093E00E94920268EC70E0B3
:101BB00080E090E00E9471011093000181E493E0C5
:101BC0000E941F03882399F1009166031091670317
:101BD0000130110561F50E94FB0380E00E94A4041E
:101BE00087E192E00E94520381E00E94A40485E50F
:101BF00093E00E94C60010926D0310926C03109344
:101C00000C0300930B0310920A0164E670E080E07D
:101C100090E00E94710181E080934F03809149031D
:101C200090914A03019690934A038093490385E07B
:101C300093E00E941F03882309F445C080916A0342
:101C400090916B03019709F03EC00E94FB0380E076
:101C50000E94A4048FED91E00E94520381E00E9453
:101C6000A40486E292E00E94520310926D03109247
:101C70006C0311E010934F038091490390914A0344
:101C8000019690934A038093490380910101811149
:101C900095C46CEE7FEF87E293E00E94920268ECBD
:101CA00070E080E090E00E9471016CEE7FEF87E2CF
:101CB00093E00E94920268EC70E080E090E00E9465
:101CC0007101109301018FEF92E00E941F0388239E
:101CD00009F445C08091680390916903019709F068
:101CE0003EC00E94FB0380E00E94A40481E092E0D9
:101CF0000E94520381E00E94A4048DE292E00E94BF
:101D0000520310926D0310926C0311E010934F0375
:101D10008091490390914A03019690934A038093DE
:101D2000490380910001811164C46CEE7FEF8DE066
:101D300093E00E94920268EC70E080E090E00E94E4
:101D400071016CEE7FEF8DE093E00E94920268ECEF
:101D500070E080E090E00E9471011093000189EF33
:101D600092E00E941F03882309F453C080916A0304
:101D700090916B03019709F04CC00E94FB0380E037
:101D80000E94A4048FED91E00E94520381E00E9422
:101D9000A40484E392E00E94520310926D03109217
:101DA0006C0361E08DE00E94CF0064EF71E080E0A1
:101DB00090E00E94710160E08DE00E94CF0011E090
:101DC00010934F038091490390914A030196909399
:101DD0004A038093490380910101811125C46CEE6F
:101DE0007FEF87E293E00E94920268EC70E080E06F
:101DF00090E00E9471016CEE7FEF87E293E00E9419
:101E0000920268EC70E080E090E00E947101109313
:101E1000010189EF92E00E941F03882309F453C057
:101E20008091680390916903019709F04CC00E946A
:101E3000FB0380E00E94A40481E092E00E94520330
:101E400081E00E94A40484E392E00E945203109275
:101E50006D0310926C0361E08DE00E94CF0064EF8F
:101E600071E080E090E00E94710160E08DE00E94EE
:101E7000CF0011E010934F038091490390914A03E2
:101E8000019690934A038093490380910001811148
:101E9000E6C36CEE7FEF8DE093E00E94920268EC67
:101EA00070E080E090E00E9471016CEE7FEF8DE0C9
:101EB00093E00E94920268EC70E080E090E00E9463
:101EC00071011093000181E493E00E941F038111CE
:101ED00036C085E093E00E941F03811130C089EF76
:101EE00092E00E941F0381112AC080916A039091A1
:101EF0006B03019721F50E94FB0380E00E94A4047C
:101F000089E392E00E94520381E00E94A4048FE6DC
:101F100093E00E94C6008091500390915103019676
:101F2000909351038093500310924F038091470385
:101F3000909148030196909348038093470381E46E
:101F400093E00E941F03811136C08FEF92E00E9440
:101F50001F03811130C089EF92E00E941F0381119D
:101F60002AC08091680390916903019721F50E942E
:101F7000FB0380E00E94A40489E392E00E945203E4
:101F800081E00E94A4048FE693E00E94C600809145
:101F90004D0390914E03019690934E0380934D0311
:101FA00010924F03809147039091480301969093BC
:101FB00048038093470381E493E00E941F0381114B
:101FC0002AC08091660390916703019721F50E94D2
:101FD000FB0380E00E94A40489E392E00E94520384
:101FE00081E00E94A4048FE693E00E94C6008091E5
:101FF0004B0390914C03019690934C0380934B03B9
:1020000010924F038091470390914803019690935B
:1020100048038093470380916A0390916B0381305A
:102020009105F9F4909307018093060110926B03D8
:1020300010926A0381E080930A016CEE72E08BE5F6
:1020400093E00E9468056CEE72E08FE693E00E94D8
:102050006805109253031092520310926D03109270
:102060006C03809168039091690381309105F9F4C4
:102070009093050180930401109269031092680304
:1020800081E080930A016CEE72E08BE593E00E94A0
:1020900068056CEE72E08FE693E00E94680510928E
:1020A00053031092520310926D0310926C038091AF
:1020B00066039091670381309105D9F490930301F1
:1020C00080930201109267031092660381E080936F
:1020D0000A016CEE72E08BE593E00E9468056CEEFD
:1020E00072E08FE693E00E9468051092530310920D
:1020F00052038091500390915103009759F0039738
:102100000CF0E1C280914F03882309F4C3C281E03F
:1021100080930A0180914D0390914E03009759F0EE
:1021200003970CF0D8C280914F03882309F4B5C2FD
:1021300081E080930A0180914B0390914C030097BA
:1021400059F003970CF0CFC280914F03882309F414
:10215000A7C281E080930A0180910B0390910C0348
:10216000892B09F038C18091F7029091F80201970C
:1021700009F047C06FE673E081E493E00E949E059A
:102180000E94FB0380E00E94A40488E492E00E9485
:10219000520381E00E94A4048FE693E00E94C600EF
:1021A00010920C0310920B031092F8021092F70297
:1021B00081E080930A0110926D0310926C031092DB
:1021C0006B0310926A0310926903109268031092D5
:1021D0006703109266036CEE72E08BE593E00E9459
:1021E00068056CEE72E08FE693E00E94680510923D
:1021F00053031092520361E070E080E090E00E948F
:1022000071018091F7029091F802029709F047C09E
:102210006FE673E085E093E00E949E050E94FB0359
:1022200080E00E94A40487E592E00E94520381E0CE
:102230000E94A4048FE693E00E94C60010920C0353
:1022400010920B031092F8021092F70281E0809333
:102250000A0110926D0310926C0310926B0310929E
:102260006A03109269031092680310926703109238
:1022700066036CEE72E08BE593E00E9468056CEEFD
:1022800072E08FE693E00E9468051092530310926B
:10229000520361E070E080E090E00E947101809163
:1022A000F7029091F802039709F047C06FE673E0D8
:1022B0008FEF92E00E949E050E94FB0380E00E9447
:1022C000A40486E692E00E94520381E00E94A404E6
:1022D0008FE693E00E94C60010920C0310920B034D
:1022E0001092F8021092F70281E080930A01109296
:1022F0006D0310926C0310926B0310926A0310929C
:1023000069031092680310926703109266036CEEE3
:1023100072E08BE593E00E9468056CEE72E08FE658
:1023200093E00E946805109253031092520361E0FB
:1023300070E080E090E00E9471018091F70290913E
:10234000F802049709F047C06FE673E089EF92E066
:102350000E949E050E94FB0380E00E94A40485E782
:1023600092E00E94520381E00E94A4048FE693E071
:102370000E94C60010920C0310920B031092F802F8
:102380001092F70281E080930A0110926D0310927F
:102390006C0310926B0310926A03109269031092FF
:1023A000680310926703109266036CEE72E08BE58F
:1023B00093E00E9468056CEE72E08FE693E00E9465
:1023C0006805109253031092520361E070E080E0C0
:1023D00090E00E94710182E0A82EB12CEE24E394DB
:1023E000F12C23E0822E912C34E0632E712CC090CE
:1023F0000B03D0900C0381E0C816D10409F053C13F
:102400000E9488008C0187599109099720F50E9444
:10241000FB0380E00E94A40484E892E00E9452033F
:1024200081E00E94A40485E593E00E94C600D0925A
:10243000F802C092F70210920C0310920B03D09294
:102440006D03C0926C0361E070E080E090E00E9458
:10245000710110920A01C801815F9109099720F565
:102460000E94FB0380E00E94A40485E992E00E94A0
:10247000520381E00E94A40485E593E00E94C60017
:10248000B092F802A092F70210920C0310920B0384
:10249000F0926D03E0926C0361E070E080E090E008
:1024A0000E94710110920A01C80185559140099757
:1024B00020F50E94FB0380E00E94A40486EA92E0DB
:1024C0000E94520381E00E94A40485E593E00E94EB
:1024D000C6009092F8028092F70210920C031092BC
:1024E0000B03F0926D03E0926C0361E070E080E01A
:1024F00090E00E94710110920A010F5B11090930EE
:10250000110508F074CF0E94FB0380E00E94A40430
:1025100087EB92E00E94520381E00E94A40485E5CB
:1025200093E00E94C6007092F8026092F702109247
:102530000C0310920B03F0926D03E0926C0361E0C8
:1025400070E080E090E00E94710110920A014FCF8C
:1025500064E170E087E293E00E94920268EC70E030
:1025600080E090E00E94710164E170E087E293E016
:102570000E94920268EC70E080E090E00E9471019D
:1025800010920101CFCA64E170E08DE093E00E94F7
:10259000920268EC70E080E090E00E94710164E1DA
:1025A00070E08DE093E00E94920268EC70E080E0C1
:1025B00090E00E9471011092000100CB64E170E094
:1025C00087E293E00E94920268EC70E080E090E085
:1025D0000E94710164E170E087E293E00E94920240
:1025E00068EC70E080E090E00E94710110920101BF
:1025F0006ACB64E170E08DE093E00E94920268ECA7
:1026000070E080E090E00E94710164E170E08DE094
:1026100093E00E94920268EC70E080E090E00E94FB
:102620007101109200019BCB64E170E087E293E0BE
:102630000E94920268EC70E080E090E00E947101DC
:1026400064E170E087E293E00E94920268EC70E03F
:1026500080E090E00E94710110920101DACB64E108
:1026600070E08DE093E00E94920268EC70E080E000
:1026700090E00E94710164E170E08DE093E00E94BF
:10268000920268EC70E080E090E00E94710110928C
:10269000000119CC10920A013DCD10920A014BCDD8
:1026A00010920A0159CD60ED77E080E090E00E9441
:1026B000710180E090E0892B11F40C9404070E94D2
:1026C00000000C940407109251031092500381E013
:1026D00080936E031FCD10924E0310924D0381E044
:1026E00080936E0328CD10924C0310924B0381E02F
:1026F00080936E0331CDEF92FF920F931F93CF9390
:10270000DF93E5E7F3E01382128285E191E09183A4
:1027100080838CE084838FEF85838BE0868385E0E4
:10272000878384E0808783E0818782E082871386C5
:10273000148615861686178681E00E940304C7E278
:10274000D3E01B861A86198218821E8A1F8A188E69
:10275000198E84E1E82EF12CFF82EE828FE090E06A
:102760009D878C8780E190E09F878E8781E190E054
:10277000998B888B82E190E09B8B8A8B61E08FE064
:102780000E941B0161E08E850E941B0161E0888927
:102790000E941B0161E08A890E941B011D8A1C8A1C
:1027A00004E010E019870887CDE0D3E01B861A8685
:1027B000198218821E8A1F8A188E198EFF82EE8255
:1027C00086E090E09D878C8787E090E09F878E87EA
:1027D00088E090E0998B888B89E090E09B8B8A8BD6
:1027E00061E086E00E941B0161E08E850E941B0172
:1027F00061E088890E941B0161E08A890E941B01B7
:102800001D8A1C8A1987088768EC72E081E493E0CE
:102810000E94BE056DEC72E085E093E00E94BE056B
:1028200062ED72E08FEF92E00E94BE0567ED72E00C
:1028300089EF92E00E94BE056CEE72E08FE693E0B5
:102840000E94BE056CEE72E08BE593E00E94BE052F
:102850006CED72E085E593E0DF91CF911F910F91D0
:10286000FF90EF900C94BE0585E593E00E94CF05A4
:102870008BE593E00E94CF058FE693E00E94CF05A1
:1028800089EF92E00E94CF058FEF92E00E94CF0582
:1028900085E093E00E94CF0581E493E00C94CF059E
:1028A000BB274A3031F4992322F4BDE290958195FB
:1028B0009F4F0C945C14BB27FB015527AA27880F58
:1028C000991FAA1FA41710F0A41B83955051B9F7A4
:1028D000A05DAA3308F0A95DA193009779F7B11123
:1028E000B1931192CB010C947514DC01FC01672F9C
:1028F00071917723E1F7329704C07C916D937083D7
:102900006291AE17BF07C8F308952F923F924F927E
:102910005F926F927F928F929F92AF92BF92CF926F
:10292000DF92EF92FF920F931F93CF93DF93CDB778
:10293000DEB7CA1BDB0B0FB6F894DEBF0FBECDBFF0
:1029400009942A88398848885F846E847D848C84C1
:102950009B84AA84B984C884DF80EE80FD800C81CA
:102960001B81AA81B981CE0FD11D0FB6F894DEBFAD
:102970000FBECDBFED01089597FB072E16F400940E
:1029800007D077FD09D00E94F51407FC05D03EF46E
:10299000909581959F4F0895709561957F4F08950B
:1029A000052E97FB1EF400940E94E71457FD07D0F4
:1029B0000E94091507FC03D04EF40C94E7145095BF
:1029C0004095309521953F4F4F4F5F4F089590951B
:1029D0008095709561957F4F8F4F9F4F0895EE0FB3
:1029E000FF1F0590F491E02D0994AA1BBB1B51E138
:1029F00007C0AA1FBB1FA617B70710F0A61BB70B6F
:102A0000881F991F5A95A9F780959095BC01CD0113
:102A10000895A1E21A2EAA1BBB1BFD010DC0AA1F1F
:102A2000BB1FEE1FFF1FA217B307E407F50720F037
:102A3000A21BB30BE40BF50B661F771F881F991FB2
:102A40001A9469F760957095809590959B01AC01FB
:102A5000BD01CF0108950F931F93CF93DF93823071
:102A6000910510F482E090E0E0918F03F0919003E3
:102A700030E020E0B0E0A0E0309799F42115310576
:102A800009F44AC0281B390B24303105D8F58A8156
:102A90009B816115710589F1FB0193838283FE019E
:102AA00011C0408151810281138148175907E0F01C
:102AB0004817590799F4109761F012960C931297E2
:102AC00013961C933296CF01DF91CF911F910F91F6
:102AD000089500938F0310939003F4CF21153105CF
:102AE00051F04217530738F0A901DB019A01BD01EB
:102AF000DF01F801C1CFEF01F9CF909390038093EC
:102B00008F03CDCFFE01E20FF31F819391932250EB
:102B1000310939832883D7CF20918D0330918E03DB
:102B2000232B41F420910D0130910E0130938E033F
:102B300020938D0320910B0130910C01211531055B
:102B400041F42DB73EB740910F0150911001241B65
:102B5000350BE0918D03F0918E03E217F307A0F49B
:102B60002E1B3F0B2817390778F0AC014E5F5F4FE3
:102B70002417350748F04E0F5F1F50938E03409384
:102B80008D03819391939FCFF0E0E0E09CCFCF93B2
:102B9000DF930097E9F0FC01329713821282A09133
:102BA0008F03B0919003ED0130E020E01097A1F485
:102BB00020813181820F931F20918D0330918E03EC
:102BC0002817390709F061C0F0938E03E0938D0355
:102BD000DF91CF910895EA01CE17DF07E8F54A812A
:102BE0005B819E0141155105B1F7E901FB83EA8341
:102BF00049915991C40FD51FEC17FD0761F48081ED
:102C000091810296840F951FE901998388838281BF
:102C100093819B838A83F0E0E0E012968D919C91F2
:102C200013970097B9F52D913C911197CD0102961C
:102C3000820F931F20918D0330918E03281739073F
:102C400039F6309751F51092900310928F03B0939C
:102C50008E03A0938D03BCCFD383C2834081518167
:102C6000840F951FC817D90761F44E5F5F4F8881A5
:102C70009981480F591F518340838A819B81938397
:102C800082832115310509F0B0CFF0939003E093D2
:102C90008F039ECFFD01DC01C0CF13821282D7CFFC
:102CA000B0E0A0E0E6E5F6E10C9487148C01009713
:102CB00051F4CB010E942B158C01C801CDB7DEB7B2
:102CC000E0E10C94A314FC01E60FF71F9C012250D5
:102CD0003109E217F30708F49DC0D901CD91DC91C9
:102CE0001197C617D70798F0C530D10530F3CE013C
:102CF00004978617970708F3C61BD70B2297C19333
:102D0000D1936D937C93CF010E94C715D6CF5B0101
:102D1000AC1ABD0A4C018C0E9D1EA0918F03B09180
:102D20009003512C412CF12CE12C109731F580911E
:102D30008D0390918E038815990509F05CC04616A5
:102D4000570608F058C080910B0190910C01009734
:102D500041F48DB79EB740910F0150911001841B33
:102D6000950BE817F90708F055C0F0938E03E09330
:102D70008D03F90171836083A0CF8D919C91119790
:102D800012966C90129713967C901397A815B9051C
:102D900059F56C0142E0C40ED11CCA14DB0420F1C9
:102DA000AC014A195B09DA011296159780F062822C
:102DB000738251834083D9016D937C93E114F104B4
:102DC00071F0D7011396FC93EE93129776CF22966B
:102DD0008C0F9D1FF90191838083F301EFCFF09356
:102DE0009003E0938F0369CF4816590608F42C012D
:102DF0007D01D3019ACFCB010E942B157C01009756
:102E000049F0AE01B8010E940D17C8010E94C71514
:102E1000870153CF10E000E050CFFB01DC0102C07E
:102E200001900D9241505040D8F70895FB01DC010C
:102E30008D91019080190110D9F3990B0895FB0130
:102E4000DC0101900D920020E1F7089510E0CDE53E
:102E5000D0E004C0FE010E94EF142196CE35D107C8
:062E6000C9F7F894FFCF52
:102E66000101010001000100010001000091038041
:102E76000000000000B20499001C031B034D6169A9
:102E86006E204D656E7500456E74657220312C326C
:102E96002C33206F7220340053797374656D204C87
:102EA6006F636B6564204D5000456E746572204DEE
:102EB600500020736563004E6F2041636365737332
:102EC60020004F70656E2F4C6F636B205365632E29
:102ED6004100456E74657220506173732E41004F38
:102EE60070656E2F4C6F636B205365632E420045F1
:102EF6006E74657220506173732E42004D61737457
:102F0600657220502E666F7220435000456E7465C0
:102F160072204D6173746572502E00205375632EB6
:102F26002041742E0020556E7375632E2041742E39
:102F3600002A0031003500360037003800300053D3
:102F460065632E41204F70656E696E672F436C6F07
:102F560073696E67004D6173746572506173732E89
:102F6600005365632E42204F70656E696E672F436E
:102F76006C6F73696E6700435020314D20324120DB
:102F860033422034540041506173732E0042506125
:102F960073732E00426169740057726F6E6720501A
:102FA600617373776F7264004D20506173732043B1
:102FB60068616E67656400412050617373204368E1
:102FC600616E6765640042205061737320436861D7
:102FD6006E67656400542050617373204368616EA8
:102FE60067656400456E746572204E657720506192
:102FF6007373204D00456E746572204E65772050C0
:10300600617373204100456E746572204E657720AA
:1030160050617373204200456E746572204E657769
:10302600205061737320540031323334003232320F
:103036003200333333330039393939002020202028
:0E3046002020202020202020202020200000FC
:00000001FF
